{
  "contractName": "ProxyContract",
  "abi": [
    {
      "inputs": [],
      "payable": true,
      "stateMutability": "payable",
      "type": "constructor"
    },
    {
      "constant": false,
      "inputs": [
        {
          "name": "to",
          "type": "address"
        }
      ],
      "name": "destroy",
      "outputs": [],
      "payable": false,
      "stateMutability": "nonpayable",
      "type": "function"
    }
  ],
  "bytecode": "0x608060405260023414151561001357600080fd5b60c8806100216000396000f300608060405260043610603e576000357c0100000000000000000000000000000000000000000000000000000000900463ffffffff168062f55d9d146043575b600080fd5b348015604e57600080fd5b506081600480360381019080803573ffffffffffffffffffffffffffffffffffffffff1690602001909291905050506083565b005b8073ffffffffffffffffffffffffffffffffffffffff16ff00a165627a7a72305820d0c468c4af26516cdd61a5dc6495f522ba41d66529f647b40603164c244f8a230029",
  "source": "pragma solidity ^0.4.26;\n\ncontract ProxyContract {\n  constructor() public payable {\n    require(msg.value == 2 wei);\n  }\n\n  function destroy(address to) public {\n    selfdestruct(to);\n  }\n}\n",
  "sourcePath": "/home/goncalo/devg/capturetheether/math/6_fifty_years_ropsten/contracts/ProxyContract.sol",
  "compiler": {
    "name": "solc",
    "version": "0.4.26+commit.4563c3fc.Emscripten.clang"
  },
  "schemaVersion": "3.4.3",
  "updatedAt": "2021-11-23T13:45:06.566Z",
  "networkType": "ethereum",
  "devdoc": {
    "methods": {}
  },
  "userdoc": {
    "methods": {}
  }
}