{
  "contractName": "ProxyContract",
  "abi": [
    {
      "inputs": [],
      "payable": true,
      "stateMutability": "payable",
      "type": "constructor"
    },
    {
      "constant": false,
      "inputs": [
        {
          "name": "to",
          "type": "address"
        }
      ],
      "name": "destroy",
      "outputs": [],
      "payable": false,
      "stateMutability": "nonpayable",
      "type": "function"
    }
  ],
  "bytecode": "0x60806040526103e83414151561001457600080fd5b60c8806100226000396000f300608060405260043610603e576000357c0100000000000000000000000000000000000000000000000000000000900463ffffffff168062f55d9d146043575b600080fd5b348015604e57600080fd5b506081600480360381019080803573ffffffffffffffffffffffffffffffffffffffff1690602001909291905050506083565b005b8073ffffffffffffffffffffffffffffffffffffffff16ff00a165627a7a72305820d87b8f26e994488f64bf630fb4170c6640973abe7fac8cea877f68d5be60314a0029",
  "source": "pragma solidity ^0.4.26;\n\ncontract ProxyContract {\n  constructor() public payable {\n    require(msg.value == 1000 wei);\n  }\n\n  function destroy(address to) public {\n    selfdestruct(to);\n  }\n}\n",
  "sourcePath": "/home/goncalo/devg/capturetheether/math/3_retirement_fund_ropsten/contracts/ProxyContract.sol",
  "compiler": {
    "name": "solc",
    "version": "0.4.26+commit.4563c3fc.Emscripten.clang"
  },
  "schemaVersion": "3.4.3",
  "updatedAt": "2021-11-09T09:14:39.632Z",
  "networkType": "ethereum",
  "devdoc": {
    "methods": {}
  },
  "userdoc": {
    "methods": {}
  }
}