{
  "contractName": "MappingChallenge",
  "abi": [
    {
      "constant": true,
      "inputs": [],
      "name": "isComplete",
      "outputs": [
        {
          "name": "",
          "type": "bool"
        }
      ],
      "payable": false,
      "stateMutability": "view",
      "type": "function"
    },
    {
      "constant": false,
      "inputs": [
        {
          "name": "key",
          "type": "uint256"
        },
        {
          "name": "value",
          "type": "uint256"
        }
      ],
      "name": "set",
      "outputs": [],
      "payable": false,
      "stateMutability": "nonpayable",
      "type": "function"
    },
    {
      "constant": true,
      "inputs": [
        {
          "name": "key",
          "type": "uint256"
        }
      ],
      "name": "get",
      "outputs": [
        {
          "name": "",
          "type": "uint256"
        }
      ],
      "payable": false,
      "stateMutability": "view",
      "type": "function"
    }
  ],
  "bytecode": "0x608060405234801561001057600080fd5b506101f8806100206000396000f300608060405260043610610057576000357c0100000000000000000000000000000000000000000000000000000000900463ffffffff1680631ab06ee51461005c5780639507d39a14610093578063b2fa1c9e146100d4575b600080fd5b34801561006857600080fd5b506100916004803603810190808035906020019092919080359060200190929190505050610103565b005b34801561009f57600080fd5b506100be60048036038101908080359060200190929190505050610146565b6040518082815260200191505060405180910390f35b3480156100e057600080fd5b506100e9610169565b604051808215151515815260200191505060405180910390f35b816001805490501115156101245760018201600181610122919061017b565b505b8060018381548110151561013457fe5b90600052602060002001819055505050565b600060018281548110151561015757fe5b90600052602060002001549050919050565b6000809054906101000a900460ff1681565b8154818355818111156101a2578183600052602060002091820191016101a191906101a7565b5b505050565b6101c991905b808211156101c55760008160009055506001016101ad565b5090565b905600a165627a7a72305820b6faa5c368a8fdf36c75ca6a6328f9937b67a3910cad70016f1d04dc83ecbd640029",
  "source": "pragma solidity ^0.4.26;\n\ncontract MappingChallenge {\n  bool public isComplete;\n  uint256[] map;\n\n  function set(uint256 key, uint256 value) public {\n      // Expand dynamic array as needed\n      if (map.length <= key) {\n          map.length = key + 1;\n      }\n\n      map[key] = value;\n  }\n\n  function get(uint256 key) public view returns (uint256) {\n      return map[key];\n  }\n}\n",
  "sourcePath": "/home/goncalo/devg/capturetheether/math/4_mapping_ropsten/contracts/MappingChallenge.sol",
  "compiler": {
    "name": "solc",
    "version": "0.4.26+commit.4563c3fc.Emscripten.clang"
  },
  "schemaVersion": "3.4.3",
  "updatedAt": "2021-11-09T16:43:11.883Z",
  "networkType": "ethereum",
  "devdoc": {
    "methods": {}
  },
  "userdoc": {
    "methods": {}
  }
}