{
  "contractName": "PredictTheFutureChallenge",
  "abi": [
    {
      "inputs": [],
      "payable": true,
      "stateMutability": "payable",
      "type": "constructor"
    },
    {
      "constant": true,
      "inputs": [],
      "name": "isComplete",
      "outputs": [
        {
          "name": "",
          "type": "bool"
        }
      ],
      "payable": false,
      "stateMutability": "view",
      "type": "function"
    },
    {
      "constant": false,
      "inputs": [
        {
          "name": "n",
          "type": "uint8"
        }
      ],
      "name": "lockInGuess",
      "outputs": [],
      "payable": true,
      "stateMutability": "payable",
      "type": "function"
    },
    {
      "constant": false,
      "inputs": [],
      "name": "settle",
      "outputs": [],
      "payable": false,
      "stateMutability": "nonpayable",
      "type": "function"
    }
  ],
  "bytecode": "0x6080604052670de0b6b3a76400003414151561001a57600080fd5b61039f806100296000396000f300608060405260043610610057576000357c0100000000000000000000000000000000000000000000000000000000900463ffffffff16806311da60b41461005c5780632c0e005414610073578063b2fa1c9e14610096575b600080fd5b34801561006857600080fd5b506100716100c5565b005b610094600480360381019080803560ff16906020019092919050505061028e565b005b3480156100a257600080fd5b506100ab610352565b604051808215151515815260200191505060405180910390f35b60008060009054906101000a900473ffffffffffffffffffffffffffffffffffffffff1673ffffffffffffffffffffffffffffffffffffffff163373ffffffffffffffffffffffffffffffffffffffff1614151561012257600080fd5b6001544311151561013257600080fd5b600a600143034042604051602001808360001916600019168152602001828152602001925050506040516020818303038152906040526040518082805190602001908083835b60208310151561019d5780518252602082019150602081019050602083039250610178565b6001836020036101000a03801982511681845116808217855250505050505090500191505060405180910390206001900460ff168115156101da57fe5b06905060008060006101000a81548173ffffffffffffffffffffffffffffffffffffffff021916908373ffffffffffffffffffffffffffffffffffffffff1602179055508060ff16600060149054906101000a900460ff1660ff16141561028b573373ffffffffffffffffffffffffffffffffffffffff166108fc671bc16d674ec800009081150290604051600060405180830381858888f19350505050158015610289573d6000803e3d6000fd5b505b50565b60008060009054906101000a900473ffffffffffffffffffffffffffffffffffffffff1673ffffffffffffffffffffffffffffffffffffffff161415156102d457600080fd5b670de0b6b3a7640000341415156102ea57600080fd5b336000806101000a81548173ffffffffffffffffffffffffffffffffffffffff021916908373ffffffffffffffffffffffffffffffffffffffff16021790555080600060146101000a81548160ff021916908360ff1602179055506001430160018190555050565b6000803073ffffffffffffffffffffffffffffffffffffffff1631149050905600a165627a7a72305820e47e03930cc79eb952420aff60e4f5398e8f459d7e7c6e9d5e2e056a99d1e4c40029",
  "source": "pragma solidity ^0.4.26;\n\ncontract PredictTheFutureChallenge {\n    address guesser;\n    uint8 guess;\n    uint256 settlementBlockNumber;\n\n    constructor() public payable {\n      require(msg.value == 1 ether);\n    }\n\n    function isComplete() public view returns (bool) {\n        return address(this).balance == 0;\n    }\n\n    function lockInGuess(uint8 n) public payable {\n        require(guesser == 0);\n        require(msg.value == 1 ether);\n\n        guesser = msg.sender;\n        guess = n;\n        settlementBlockNumber = block.number + 1;\n    }\n\n    function settle() public {\n        require(msg.sender == guesser);\n        require(block.number > settlementBlockNumber);\n\n        uint8 answer = uint8(keccak256(abi.encodePacked(blockhash(block.number - 1), now))) % 10;\n\n        guesser = 0;\n        if (guess == answer) {\n            msg.sender.transfer(2 ether);\n        }\n    }\n}",
  "sourcePath": "/home/goncalo/devg/capturetheether/lotteries/5_predict_the_future_local/contracts/PredictTheFutureChallenge.sol",
  "compiler": {
    "name": "solc",
    "version": "0.4.26+commit.4563c3fc.Emscripten.clang"
  },
  "schemaVersion": "3.4.3",
  "updatedAt": "2021-10-26T11:47:47.261Z",
  "networkType": "ethereum",
  "devdoc": {
    "methods": {}
  },
  "userdoc": {
    "methods": {}
  }
}