{
  "contractName": "ProxyContract",
  "abi": [
    {
      "inputs": [],
      "payable": true,
      "stateMutability": "payable",
      "type": "constructor"
    },
    {
      "payable": true,
      "stateMutability": "payable",
      "type": "fallback"
    },
    {
      "anonymous": false,
      "inputs": [
        {
          "indexed": false,
          "name": "lastBlockAnswer",
          "type": "uint8"
        }
      ],
      "name": "LastBlockAnswer",
      "type": "event"
    },
    {
      "constant": false,
      "inputs": [
        {
          "name": "_guess",
          "type": "uint8"
        },
        {
          "name": "_addr",
          "type": "address"
        }
      ],
      "name": "lockInGuess",
      "outputs": [],
      "payable": true,
      "stateMutability": "payable",
      "type": "function"
    },
    {
      "constant": false,
      "inputs": [
        {
          "name": "_addr",
          "type": "address"
        }
      ],
      "name": "tryWin",
      "outputs": [],
      "payable": false,
      "stateMutability": "nonpayable",
      "type": "function"
    },
    {
      "constant": false,
      "inputs": [],
      "name": "destroy",
      "outputs": [],
      "payable": false,
      "stateMutability": "nonpayable",
      "type": "function"
    }
  ],
  "bytecode": "0x608060405260646000806101000a81548160ff021916908360ff16021790555061056c8061002e6000396000f300608060405260043610610057576000357c0100000000000000000000000000000000000000000000000000000000900463ffffffff1680635e65d20b1461005957806383197ef01461009c5780638c92234d146100b3575b005b61009a600480360381019080803560ff169060200190929190803573ffffffffffffffffffffffffffffffffffffffff1690602001909291905050506100f6565b005b3480156100a857600080fd5b506100b1610257565b005b3480156100bf57600080fd5b506100f4600480360381019080803573ffffffffffffffffffffffffffffffffffffffff169060200190929190505050610270565b005b600081905060646000809054906101000a900460ff1660ff161415156101aa576040517f08c379a00000000000000000000000000000000000000000000000000000000081526004018080602001828103825260278152602001807f5468657265277320612067756573732076616c75652063757272656e746c792081526020017f6c6f636b65642e0000000000000000000000000000000000000000000000000081525060400191505060405180910390fd5b8073ffffffffffffffffffffffffffffffffffffffff16632c0e005434856040518363ffffffff167c0100000000000000000000000000000000000000000000000000000000028152600401808260ff1660ff1681526020019150506000604051808303818588803b15801561021f57600080fd5b505af1158015610233573d6000803e3d6000fd5b5050505050826000806101000a81548160ff021916908360ff160217905550505050565b3373ffffffffffffffffffffffffffffffffffffffff16ff5b60008060646000809054906101000a900460ff1660ff16141515156102fd576040517f08c379a000000000000000000000000000000000000000000000000000000000815260040180806020018281038252601a8152602001807f4e6f2067756573732076616c7565206c6f636b6564207965742e00000000000081525060200191505060405180910390fd5b829150600a600143034042604051602001808360001916600019168152602001828152602001925050506040516020818303038152906040526040518082805190602001908083835b60208310151561036b5780518252602082019150602081019050602083039250610346565b6001836020036101000a03801982511681845116808217855250505050505090500191505060405180910390206001900460ff168115156103a857fe5b0690507f5899ffe59c4f147170ad93d7bb8119eacd7aaf4862db8f85cb1c9860602f351381604051808260ff1660ff16815260200191505060405180910390a16000809054906101000a900460ff1660ff168160ff161415156104bf576040517f08c379a000000000000000000000000000000000000000000000000000000000815260040180806020018281038252604a8152602001807f426574746572207761697420666f7220746865206e65787420626c6f636b2c2081526020017f63757272656e7420677565737320646f6573206e6f74206d6174636820626c6f81526020017f636b20616e737765722e0000000000000000000000000000000000000000000081525060600191505060405180910390fd5b8173ffffffffffffffffffffffffffffffffffffffff166311da60b46040518163ffffffff167c0100000000000000000000000000000000000000000000000000000000028152600401600060405180830381600087803b15801561052357600080fd5b505af1158015610537573d6000803e3d6000fd5b505050505050505600a165627a7a7230582067381175461dd758892b74e2af3287d85db95e45a1e44f4c3c017533b8c1c06e0029",
  "source": "pragma solidity ^0.4.26;\n\nimport \"./PredictTheFutureChallengeInterface.sol\";\n\ncontract ProxyContract {\n  constructor() public payable {}\n\n  // Fallback payable function necessary otherwise win function would revert.\n  // Fallback functions are executed when a contract receives plain Ether without\n  // any other data associated with the transaction. In this case, when `settle` function\n  // is called and answer is correct, 2 ethers will be transfered to ProxyContract (and no data is sent).\n  //\n  function() public payable {}\n\n  event LastBlockAnswer(uint8 lastBlockAnswer);\n\n  // setting variable with 100 since value can actually be set as 0\n  uint8 guess = 100;\n\n  function lockInGuess(uint8 _guess, address _addr) public payable {\n    PredictTheFutureChallengeInterface target = PredictTheFutureChallengeInterface(_addr);\n\n    require(guess == 100, \"There's a guess value currently locked.\");\n\n    target.lockInGuess.value(msg.value)(_guess);\n\n    guess = _guess;\n  }\n\n  function tryWin(address _addr) public {\n    require(guess != 100, \"No guess value locked yet.\");\n\n    PredictTheFutureChallengeInterface target = PredictTheFutureChallengeInterface(_addr);\n\n    uint8 thisBlockAnswer = uint8(keccak256(abi.encodePacked(blockhash(block.number - 1), now))) % 10;\n\n    emit LastBlockAnswer(thisBlockAnswer);\n\n    require(thisBlockAnswer == guess, \"Better wait for the next block, current guess does not match block answer.\");\n\n    target.settle();\n  }\n\n  // needless to say but still, call function with\n  // `send` and respective account instead of `call`\n  function destroy() public {\n    selfdestruct(msg.sender);\n  }\n}\n",
  "sourcePath": "/home/goncalo/devg/capturetheether/lotteries/5_predict_the_future_local/contracts/ProxyContract.sol",
  "compiler": {
    "name": "solc",
    "version": "0.4.26+commit.4563c3fc.Emscripten.clang"
  },
  "schemaVersion": "3.4.3",
  "updatedAt": "2021-10-26T11:47:47.259Z",
  "networkType": "ethereum",
  "devdoc": {
    "methods": {}
  },
  "userdoc": {
    "methods": {}
  }
}