{
  "contractName": "Test",
  "abi": [
    {
      "inputs": [],
      "payable": false,
      "stateMutability": "nonpayable",
      "type": "constructor"
    },
    {
      "constant": true,
      "inputs": [
        {
          "name": "number",
          "type": "uint256"
        }
      ],
      "name": "testOverflow",
      "outputs": [
        {
          "name": "",
          "type": "uint256"
        }
      ],
      "payable": false,
      "stateMutability": "pure",
      "type": "function"
    },
    {
      "constant": true,
      "inputs": [
        {
          "name": "number",
          "type": "uint8"
        }
      ],
      "name": "testOverflow2",
      "outputs": [
        {
          "name": "",
          "type": "uint8"
        }
      ],
      "payable": false,
      "stateMutability": "pure",
      "type": "function"
    },
    {
      "constant": true,
      "inputs": [
        {
          "name": "number",
          "type": "uint8"
        }
      ],
      "name": "testOverflow3",
      "outputs": [
        {
          "name": "",
          "type": "uint8"
        }
      ],
      "payable": false,
      "stateMutability": "pure",
      "type": "function"
    },
    {
      "constant": true,
      "inputs": [
        {
          "name": "number",
          "type": "uint256"
        }
      ],
      "name": "testOverflow4",
      "outputs": [
        {
          "name": "",
          "type": "uint256"
        }
      ],
      "payable": false,
      "stateMutability": "pure",
      "type": "function"
    }
  ],
  "bytecode": "0x608060405234801561001057600080fd5b506101e4806100206000396000f300608060405260043610610062576000357c0100000000000000000000000000000000000000000000000000000000900463ffffffff168063208b7fb7146100675780633f979e41146100a8578063972c650a146100f2578063c12db52014610133575b600080fd5b34801561007357600080fd5b506100926004803603810190808035906020019092919050505061017d565b6040518082815260200191505060405180910390f35b3480156100b457600080fd5b506100d6600480360381019080803560ff169060200190929190505050610191565b604051808260ff1660ff16815260200191505060405180910390f35b3480156100fe57600080fd5b5061011d6004803603810190808035906020019092919050505061019e565b6040518082815260200191505060405180910390f35b34801561013f57600080fd5b50610161600480360381019080803560ff1690602001909291905050506101ab565b604051808260ff1660ff16815260200191505060405180910390f35b6000670de0b6b3a764000082029050919050565b6000600382019050919050565b6000600382019050919050565b60006001820190509190505600a165627a7a723058208c076d188c17b14a251ad414f0c9d7227bffc9872f8eb8ddb50f73c7769a19600029",
  "source": "pragma solidity ^0.4.24;\n\ncontract Test {\n  constructor() public {}\n\n  function testOverflow(uint256 number) public pure returns(uint256) {\n    return number * 1 ether;\n  }\n\n  function testOverflow2(uint8 number) public pure returns(uint8) {\n    return number + 1;\n  }\n\n  // if we pass 2**8-1 as parameter (255) result will be 2\n  function testOverflow3(uint8 number) public pure returns(uint8) {\n    return number + 3;\n  }\n\n  function testOverflow4(uint256 number) public pure returns(uint256) {\n    return number + 3;\n  }\n\n}\n",
  "sourcePath": "/home/goncalo/devg/capturetheether/math/1_token_sale_local/contracts/Test.sol",
  "compiler": {
    "name": "solc",
    "version": "0.4.26+commit.4563c3fc.Emscripten.clang"
  },
  "schemaVersion": "3.4.3",
  "updatedAt": "2021-11-08T09:43:26.407Z",
  "networkType": "ethereum",
  "devdoc": {
    "methods": {}
  },
  "userdoc": {
    "methods": {}
  }
}