{
  "contractName": "FiftyYearsChallenge",
  "abi": [
    {
      "inputs": [
        {
          "name": "player",
          "type": "address"
        }
      ],
      "payable": true,
      "stateMutability": "payable",
      "type": "constructor"
    },
    {
      "constant": true,
      "inputs": [],
      "name": "isComplete",
      "outputs": [
        {
          "name": "",
          "type": "bool"
        }
      ],
      "payable": false,
      "stateMutability": "view",
      "type": "function"
    },
    {
      "constant": true,
      "inputs": [],
      "name": "getLength",
      "outputs": [
        {
          "name": "",
          "type": "uint256"
        }
      ],
      "payable": false,
      "stateMutability": "view",
      "type": "function"
    },
    {
      "constant": true,
      "inputs": [
        {
          "name": "index",
          "type": "uint256"
        }
      ],
      "name": "getAmount",
      "outputs": [
        {
          "name": "",
          "type": "uint256"
        }
      ],
      "payable": false,
      "stateMutability": "view",
      "type": "function"
    },
    {
      "constant": true,
      "inputs": [
        {
          "name": "index",
          "type": "uint256"
        }
      ],
      "name": "getTimestamp",
      "outputs": [
        {
          "name": "",
          "type": "uint256"
        }
      ],
      "payable": false,
      "stateMutability": "view",
      "type": "function"
    },
    {
      "constant": true,
      "inputs": [],
      "name": "getNow",
      "outputs": [
        {
          "name": "",
          "type": "uint256"
        }
      ],
      "payable": false,
      "stateMutability": "view",
      "type": "function"
    },
    {
      "constant": true,
      "inputs": [],
      "name": "getHead",
      "outputs": [
        {
          "name": "",
          "type": "uint256"
        }
      ],
      "payable": false,
      "stateMutability": "view",
      "type": "function"
    },
    {
      "constant": false,
      "inputs": [
        {
          "name": "index",
          "type": "uint256"
        },
        {
          "name": "timestamp",
          "type": "uint256"
        }
      ],
      "name": "upsert",
      "outputs": [],
      "payable": true,
      "stateMutability": "payable",
      "type": "function"
    },
    {
      "constant": false,
      "inputs": [
        {
          "name": "index",
          "type": "uint256"
        }
      ],
      "name": "withdraw",
      "outputs": [],
      "payable": false,
      "stateMutability": "nonpayable",
      "type": "function"
    },
    {
      "constant": true,
      "inputs": [
        {
          "name": "index",
          "type": "uint256"
        }
      ],
      "name": "withdraw2",
      "outputs": [
        {
          "name": "",
          "type": "uint256"
        }
      ],
      "payable": false,
      "stateMutability": "view",
      "type": "function"
    }
  ],
  "bytecode": "0x608060405260405160208061079183398101806040528101908080519060200190929190505050670de0b6b3a76400003414151561003c57600080fd5b80600260006101000a81548173ffffffffffffffffffffffffffffffffffffffff021916908373ffffffffffffffffffffffffffffffffffffffff16021790555060006040805190810160405280348152602001635dfc0f004201815250908060018154018082558091505090600182039060005260206000209060020201600090919290919091506000820151816000015560208201518160010155505050506106a5806100ec6000396000f300608060405260043610610099576000357c0100000000000000000000000000000000000000000000000000000000900463ffffffff1680632e1a7d4d1461009e57806334273351146100cb5780633b8f718a1461010c5780639980ec8614610136578063b2fa1c9e14610177578063b633620c146101a6578063bbe4fd50146101e7578063be1c766b14610212578063dc281aff1461023d575b600080fd5b3480156100aa57600080fd5b506100c960048036038101908080359060200190929190505050610268565b005b3480156100d757600080fd5b506100f6600480360381019080803590602001909291905050506103c1565b6040518082815260200191505060405180910390f35b61013460048036038101908080359060200190929190803590602001909291905050506104a0565b005b34801561014257600080fd5b50610161600480360381019080803590602001909291905050506105e8565b6040518082815260200191505060405180910390f35b34801561018357600080fd5b5061018c610611565b604051808215151515815260200191505060405180910390f35b3480156101b257600080fd5b506101d160048036038101908080359060200190929190505050610632565b6040518082815260200191505060405180910390f35b3480156101f357600080fd5b506101fc61065b565b6040518082815260200191505060405180910390f35b34801561021e57600080fd5b50610227610663565b6040518082815260200191505060405180910390f35b34801561024957600080fd5b5061025261066f565b6040518082815260200191505060405180910390f35b600080600260009054906101000a900473ffffffffffffffffffffffffffffffffffffffff1673ffffffffffffffffffffffffffffffffffffffff163373ffffffffffffffffffffffffffffffffffffffff161415156102c757600080fd5b6000838154811015156102d657fe5b90600052602060002090600202016001015442101515156102f657600080fd5b6000915060015490505b828111151561036b5760008181548110151561031857fe5b9060005260206000209060020201600001548201915060008181548110151561033d57fe5b9060005260206000209060020201600080820160009055600182016000905550508080600101915050610300565b600183016001819055503373ffffffffffffffffffffffffffffffffffffffff166108fc839081150290604051600060405180830381858888f193505050501580156103bb573d6000803e3d6000fd5b50505050565b6000806000600260009054906101000a900473ffffffffffffffffffffffffffffffffffffffff1673ffffffffffffffffffffffffffffffffffffffff163373ffffffffffffffffffffffffffffffffffffffff1614151561042257600080fd5b60008481548110151561043157fe5b906000526020600020906002020160010154421015151561045157600080fd5b6000915060015490505b83811115156104965760008181548110151561047357fe5b90600052602060002090600202016000015482019150808060010191505061045b565b8192505050919050565b6000600260009054906101000a900473ffffffffffffffffffffffffffffffffffffffff1673ffffffffffffffffffffffffffffffffffffffff163373ffffffffffffffffffffffffffffffffffffffff161415156104fe57600080fd5b6001548310158015610514575060008054905083105b1561054f5760008381548110151561052857fe5b906000526020600020906002020190503481600001600082825401925050819055506105e3565b62015180600060016000805490500381548110151561056a57fe5b90600052602060002090600202016001015401821015151561058b57600080fd5b3481600001819055508181600101819055506000819080600181540180825580915050906001820390600052602060002090600202016000909192909190915060008201548160000155600182015481600101555050505b505050565b600080828154811015156105f857fe5b9060005260206000209060020201600001549050919050565b6000803073ffffffffffffffffffffffffffffffffffffffff163114905090565b6000808281548110151561064257fe5b9060005260206000209060020201600101549050919050565b600042905090565b60008080549050905090565b60006001549050905600a165627a7a72305820e041ca6f443f3087556848b7b2f470543d2f0252996db275e090657f25a56c370029",
  "source": "pragma solidity ^0.4.21;\n\ncontract FiftyYearsChallenge {\n    struct Contribution {\n        uint256 amount;\n        uint256 unlockTimestamp;\n    }\n    Contribution[] queue;\n    uint256 head;\n\n    address owner;\n\n    constructor(address player) public payable {\n        require(msg.value == 1 ether);\n\n        owner = player;\n        queue.push(Contribution(msg.value, now + 50 years));\n    }\n\n    function isComplete() public view returns (bool) {\n        return address(this).balance == 0;\n    }\n\n    function getLength() public view returns (uint256) {\n      return queue.length;\n    }\n\n    function getAmount(uint256 index) public view returns (uint256) {\n      return queue[index].amount;\n    }\n\n    function getTimestamp(uint256 index) public view returns (uint256) {\n      return queue[index].unlockTimestamp;\n    }\n\n    function getNow() public view returns (uint256) {\n      return now;\n    }\n\n    function getHead() public view returns (uint256) {\n      return head;\n    }\n\n    function upsert(uint256 index, uint256 timestamp) public payable {\n        require(msg.sender == owner);\n\n        if (index >= head && index < queue.length) {\n            // Update existing contribution amount without updating timestamp.\n            // NOTE: couldn't find anything about this but it seems we just have function\n            // scope, `contribution` variable isn't scoped to condition.\n            Contribution storage contribution = queue[index];\n            contribution.amount += msg.value;\n        }\n        else {\n            // Append a new contribution. Require that each contribution unlock\n            // at least 1 day after the previous one.\n            require(timestamp >= queue[queue.length - 1].unlockTimestamp + 1 days);\n\n            contribution.amount = msg.value;\n            contribution.unlockTimestamp = timestamp;\n            queue.push(contribution);\n        }\n    }\n\n    function withdraw(uint256 index) public {\n        require(msg.sender == owner);\n        require(now >= queue[index].unlockTimestamp);\n\n        // Withdraw this and any earlier contributions.\n        uint256 total = 0;\n        for (uint256 i = head; i <= index; i++) {\n            total += queue[i].amount;\n\n            // Reclaim storage.\n            delete queue[i];\n        }\n\n        // Move the head of the queue forward so we don't have to loop over\n        // already-withdrawn contributions.\n        head = index + 1;\n\n        msg.sender.transfer(total);\n    }\n\n    function withdraw2(uint256 index) public view returns(uint256) {\n        require(msg.sender == owner);\n        require(now >= queue[index].unlockTimestamp);\n\n        // Withdraw this and any earlier contributions.\n        uint256 total = 0;\n        for (uint256 i = head; i <= index; i++) {\n            total += queue[i].amount;\n\n            // Reclaim storage.\n            // delete queue[i];\n        }\n\n        // Move the head of the queue forward so we don't have to loop over\n        // already-withdrawn contributions.\n        // head = index + 1;\n\n        return total;\n    }\n}",
  "sourcePath": "/home/goncalo/devg/capturetheether/math/6_fifty_years_local/contracts/FiftyYearsChallenge.sol",
  "compiler": {
    "name": "solc",
    "version": "0.4.26+commit.4563c3fc.Emscripten.clang"
  },
  "schemaVersion": "3.4.3",
  "updatedAt": "2021-11-23T12:03:57.122Z",
  "networkType": "ethereum",
  "devdoc": {
    "methods": {}
  },
  "userdoc": {
    "methods": {}
  }
}