{
  "contractName": "GuessTheNewNumberChallenge",
  "abi": [
    {
      "inputs": [],
      "payable": true,
      "stateMutability": "payable",
      "type": "constructor"
    },
    {
      "constant": true,
      "inputs": [],
      "name": "isComplete",
      "outputs": [
        {
          "name": "",
          "type": "bool"
        }
      ],
      "payable": false,
      "stateMutability": "view",
      "type": "function"
    },
    {
      "constant": false,
      "inputs": [
        {
          "name": "n",
          "type": "uint8"
        }
      ],
      "name": "guess",
      "outputs": [],
      "payable": true,
      "stateMutability": "payable",
      "type": "function"
    }
  ],
  "bytecode": "0x6080604052670de0b6b3a76400003414151561001a57600080fd5b610206806100296000396000f30060806040526004361061004c576000357c0100000000000000000000000000000000000000000000000000000000900463ffffffff1680634ba4c16b14610051578063b2fa1c9e14610074575b600080fd5b610072600480360381019080803560ff1690602001909291905050506100a3565b005b34801561008057600080fd5b506100896101b9565b604051808215151515815260200191505060405180910390f35b6000670de0b6b3a7640000341415156100bb57600080fd5b600143034042604051602001808360001916600019168152602001828152602001925050506040516020818303038152906040526040518082805190602001908083835b60208310151561012457805182526020820191506020810190506020830392506100ff565b6001836020036101000a03801982511681845116808217855250505050505090500191505060405180910390206001900490508060ff168260ff1614156101b5573373ffffffffffffffffffffffffffffffffffffffff166108fc671bc16d674ec800009081150290604051600060405180830381858888f193505050501580156101b3573d6000803e3d6000fd5b505b5050565b6000803073ffffffffffffffffffffffffffffffffffffffff1631149050905600a165627a7a7230582026ec00b0923d6c6b94bcb252a2a2af524796767c596a889f3f78352b0020b0d60029",
  "source": "pragma solidity ^0.4.26;\n\ncontract GuessTheNewNumberChallenge {\n\n    constructor() public payable {\n      require(msg.value == 1 ether);\n    }\n\n    function isComplete() public view returns (bool) {\n        return address(this).balance == 0;\n    }\n\n    function guess(uint8 n) public payable {\n        require(msg.value == 1 ether);\n\n        uint8 answer = uint8(keccak256(abi.encodePacked(blockhash(block.number - 1), now)));\n\n        if (n == answer) {\n            msg.sender.transfer(2 ether);\n        }\n    }\n}",
  "sourcePath": "/home/goncalo/devg/capturetheether/lotteries/4_guess_the_new_number/contracts/GuessTheNewNumberChallenge.sol",
  "compiler": {
    "name": "solc",
    "version": "0.4.26+commit.4563c3fc.Emscripten.clang"
  },
  "schemaVersion": "3.4.3",
  "updatedAt": "2021-10-25T10:15:43.418Z",
  "networkType": "ethereum",
  "devdoc": {
    "methods": {}
  },
  "userdoc": {
    "methods": {}
  }
}