{
  "contractName": "MappingChallenge",
  "abi": [
    {
      "constant": true,
      "inputs": [],
      "name": "isComplete",
      "outputs": [
        {
          "name": "",
          "type": "bool"
        }
      ],
      "payable": false,
      "stateMutability": "view",
      "type": "function"
    },
    {
      "constant": true,
      "inputs": [],
      "name": "test",
      "outputs": [
        {
          "name": "",
          "type": "uint256"
        }
      ],
      "payable": false,
      "stateMutability": "view",
      "type": "function"
    },
    {
      "constant": false,
      "inputs": [
        {
          "name": "key",
          "type": "uint256"
        },
        {
          "name": "value",
          "type": "uint256"
        }
      ],
      "name": "set",
      "outputs": [],
      "payable": false,
      "stateMutability": "nonpayable",
      "type": "function"
    },
    {
      "constant": true,
      "inputs": [
        {
          "name": "key",
          "type": "uint256"
        }
      ],
      "name": "get",
      "outputs": [
        {
          "name": "",
          "type": "uint256"
        }
      ],
      "payable": false,
      "stateMutability": "view",
      "type": "function"
    }
  ],
  "bytecode": "0x608060405234801561001057600080fd5b50610235806100206000396000f300608060405260043610610062576000357c0100000000000000000000000000000000000000000000000000000000900463ffffffff1680631ab06ee5146100675780639507d39a1461009e578063b2fa1c9e146100df578063f8a8fd6d1461010e575b600080fd5b34801561007357600080fd5b5061009c6004803603810190808035906020019092919080359060200190929190505050610139565b005b3480156100aa57600080fd5b506100c96004803603810190808035906020019092919050505061017c565b6040518082815260200191505060405180910390f35b3480156100eb57600080fd5b506100f461019f565b604051808215151515815260200191505060405180910390f35b34801561011a57600080fd5b506101236101b2565b6040518082815260200191505060405180910390f35b8160028054905011151561015a576001820160028161015891906101b8565b505b8060028381548110151561016a57fe5b90600052602060002001819055505050565b600060028281548110151561018d57fe5b90600052602060002001549050919050565b600160009054906101000a900460ff1681565b60005481565b8154818355818111156101df578183600052602060002091820191016101de91906101e4565b5b505050565b61020691905b808211156102025760008160009055506001016101ea565b5090565b905600a165627a7a723058208a0508ee21ed93f7b609a9bc2df83de6ebde78a85b68fdf7ce44d08b77d6f5a10029",
  "source": "pragma solidity ^0.4.21;\n\ncontract MappingChallenge {\n\n    uint256 public test;\n    bool public isComplete;\n    uint256[] map;\n\n    function set(uint256 key, uint256 value) public {\n        // Expand dynamic array as needed\n        if (map.length <= key) {\n            map.length = key + 1;\n        }\n\n        map[key] = value;\n    }\n\n    function get(uint256 key) public view returns (uint256) {\n        return map[key];\n    }\n}",
  "sourcePath": "/home/goncalo/devg/capturetheether/math/4_mapping_local/contracts/MappingChallenge.sol",
  "compiler": {
    "name": "solc",
    "version": "0.4.26+commit.4563c3fc.Emscripten.clang"
  },
  "schemaVersion": "3.4.3",
  "updatedAt": "2021-11-16T12:04:41.379Z",
  "networkType": "ethereum",
  "devdoc": {
    "methods": {}
  },
  "userdoc": {
    "methods": {}
  }
}