{
  "contractName": "ProxyContract",
  "abi": [
    {
      "inputs": [],
      "payable": true,
      "stateMutability": "payable",
      "type": "constructor"
    },
    {
      "payable": true,
      "stateMutability": "payable",
      "type": "fallback"
    },
    {
      "constant": false,
      "inputs": [
        {
          "name": "_addr",
          "type": "address"
        }
      ],
      "name": "win",
      "outputs": [],
      "payable": true,
      "stateMutability": "payable",
      "type": "function"
    },
    {
      "constant": true,
      "inputs": [],
      "name": "getLastAnswer",
      "outputs": [
        {
          "name": "",
          "type": "uint8"
        }
      ],
      "payable": false,
      "stateMutability": "view",
      "type": "function"
    },
    {
      "constant": false,
      "inputs": [],
      "name": "destroy",
      "outputs": [],
      "payable": false,
      "stateMutability": "nonpayable",
      "type": "function"
    }
  ],
  "bytecode": "0x6080604052610281806100136000396000f300608060405260043610610057576000357c0100000000000000000000000000000000000000000000000000000000900463ffffffff168063131537bd1461005957806383197ef01461008a578063a34cc845146100a1575b005b34801561006557600080fd5b5061006e6100d7565b604051808260ff1660ff16815260200191505060405180910390f35b34801561009657600080fd5b5061009f6100ed565b005b6100d5600480360381019080803573ffffffffffffffffffffffffffffffffffffffff169060200190929190505050610106565b005b60008060009054906101000a900460ff16905090565b3373ffffffffffffffffffffffffffffffffffffffff16ff5b600080829150600143034042604051602001808360001916600019168152602001828152602001925050506040516020818303038152906040526040518082805190602001908083835b6020831015156101755780518252602082019150602081019050602083039250610150565b6001836020036101000a03801982511681845116808217855250505050505090500191505060405180910390206001900490508173ffffffffffffffffffffffffffffffffffffffff16634ba4c16b34836040518363ffffffff167c0100000000000000000000000000000000000000000000000000000000028152600401808260ff1660ff1681526020019150506000604051808303818588803b15801561021d57600080fd5b505af1158015610231573d6000803e3d6000fd5b5050505050806000806101000a81548160ff021916908360ff1602179055505050505600a165627a7a72305820abf656e61a0ee14ee6802ca160e8391d0ff000ba4efedfdd199cdd90b9c62f930029",
  "source": "pragma solidity ^0.4.26;\n\nimport \"./GuessTheNewNumberChallengeInterface.sol\";\n\ncontract ProxyContract {\n  constructor() public payable {}\n\n  // Fallback payable function necessary otherwise win function would revert.\n  // Fallback functions are executed when a contract receives plain Ether without\n  // any other data associated with the transaction. In this case, when guess function\n  // is called and answer is correct (as it should be), 2 ethers will be transfered\n  // to ProxyContract (and no data is sent).\n  //\n  function() public payable {}\n\n  uint8 lastAnswer;\n\n  function win(address _addr) public payable {\n    GuessTheNewNumberChallengeInterface target = GuessTheNewNumberChallengeInterface(_addr);\n\n    uint8 answer = uint8(keccak256(abi.encodePacked(blockhash(block.number - 1), now)));\n\n    target.guess.value(msg.value)(answer);\n\n    lastAnswer = answer;\n  }\n\n  // helper to double-check answer was calculated\n  function getLastAnswer() public view returns(uint8) {\n    return lastAnswer;\n  }\n\n  // needless to say but still, call function with\n  // `send` and respective account instead of `call`\n  function destroy() public {\n    selfdestruct(msg.sender);\n  }\n}\n",
  "sourcePath": "/home/goncalo/devg/capturetheether/lotteries/4_guess_the_new_number/contracts/ProxyContract.sol",
  "compiler": {
    "name": "solc",
    "version": "0.4.26+commit.4563c3fc.Emscripten.clang"
  },
  "schemaVersion": "3.4.3",
  "updatedAt": "2021-10-25T10:15:43.416Z",
  "networkType": "ethereum",
  "devdoc": {
    "methods": {}
  },
  "userdoc": {
    "methods": {}
  }
}