{
  "contractName": "TestOldHashContract",
  "abi": [
    {
      "inputs": [],
      "payable": false,
      "stateMutability": "nonpayable",
      "type": "constructor"
    },
    {
      "constant": true,
      "inputs": [
        {
          "name": "blockNumber",
          "type": "uint256"
        }
      ],
      "name": "test",
      "outputs": [
        {
          "name": "",
          "type": "bytes32"
        }
      ],
      "payable": false,
      "stateMutability": "view",
      "type": "function"
    }
  ],
  "bytecode": "0x608060405234801561001057600080fd5b5060c68061001f6000396000f300608060405260043610603f576000357c0100000000000000000000000000000000000000000000000000000000900463ffffffff16806329e99f07146044575b600080fd5b348015604f57600080fd5b50606c60048036038101908080359060200190929190505050608a565b60405180826000191660001916815260200191505060405180910390f35b60008082409050809150509190505600a165627a7a723058206c488d239e899cff1f79f7fcb77cf2ebbc5b13bdecf14225288d518de16d93530029",
  "source": "pragma solidity ^0.4.26;\n\ncontract TestOldHashContract {\n  constructor() public {}\n\n  function test(uint256 blockNumber) public view returns(bytes32) {\n\n    bytes32 hash = blockhash(blockNumber);\n\n    return hash;\n  }\n}\n",
  "sourcePath": "/home/goncalo/devg/capturetheether/lotteries/6_predict_the_block_hash_local/contracts/TestOldHashContract.sol",
  "compiler": {
    "name": "solc",
    "version": "0.4.26+commit.4563c3fc.Emscripten.clang"
  },
  "schemaVersion": "3.4.3",
  "updatedAt": "2021-10-26T14:18:56.877Z",
  "networkType": "ethereum",
  "devdoc": {
    "methods": {}
  },
  "userdoc": {
    "methods": {}
  }
}