{
  "contractName": "SimpleERC223Token",
  "abi": [
    {
      "constant": true,
      "inputs": [],
      "name": "name",
      "outputs": [
        {
          "name": "",
          "type": "string"
        }
      ],
      "payable": false,
      "stateMutability": "view",
      "type": "function"
    },
    {
      "constant": true,
      "inputs": [],
      "name": "totalSupply",
      "outputs": [
        {
          "name": "",
          "type": "uint256"
        }
      ],
      "payable": false,
      "stateMutability": "view",
      "type": "function"
    },
    {
      "constant": true,
      "inputs": [],
      "name": "decimals",
      "outputs": [
        {
          "name": "",
          "type": "uint8"
        }
      ],
      "payable": false,
      "stateMutability": "view",
      "type": "function"
    },
    {
      "constant": true,
      "inputs": [
        {
          "name": "",
          "type": "address"
        }
      ],
      "name": "balanceOf",
      "outputs": [
        {
          "name": "",
          "type": "uint256"
        }
      ],
      "payable": false,
      "stateMutability": "view",
      "type": "function"
    },
    {
      "constant": true,
      "inputs": [],
      "name": "symbol",
      "outputs": [
        {
          "name": "",
          "type": "string"
        }
      ],
      "payable": false,
      "stateMutability": "view",
      "type": "function"
    },
    {
      "constant": true,
      "inputs": [
        {
          "name": "",
          "type": "address"
        },
        {
          "name": "",
          "type": "address"
        }
      ],
      "name": "allowance",
      "outputs": [
        {
          "name": "",
          "type": "uint256"
        }
      ],
      "payable": false,
      "stateMutability": "view",
      "type": "function"
    },
    {
      "inputs": [],
      "payable": false,
      "stateMutability": "nonpayable",
      "type": "constructor"
    },
    {
      "anonymous": false,
      "inputs": [
        {
          "indexed": true,
          "name": "from",
          "type": "address"
        },
        {
          "indexed": true,
          "name": "to",
          "type": "address"
        },
        {
          "indexed": false,
          "name": "value",
          "type": "uint256"
        }
      ],
      "name": "Transfer",
      "type": "event"
    },
    {
      "anonymous": false,
      "inputs": [
        {
          "indexed": true,
          "name": "owner",
          "type": "address"
        },
        {
          "indexed": true,
          "name": "spender",
          "type": "address"
        },
        {
          "indexed": false,
          "name": "value",
          "type": "uint256"
        }
      ],
      "name": "Approval",
      "type": "event"
    },
    {
      "constant": false,
      "inputs": [
        {
          "name": "to",
          "type": "address"
        },
        {
          "name": "value",
          "type": "uint256"
        }
      ],
      "name": "transfer",
      "outputs": [
        {
          "name": "success",
          "type": "bool"
        }
      ],
      "payable": false,
      "stateMutability": "nonpayable",
      "type": "function"
    },
    {
      "constant": false,
      "inputs": [
        {
          "name": "to",
          "type": "address"
        },
        {
          "name": "value",
          "type": "uint256"
        },
        {
          "name": "data",
          "type": "bytes"
        }
      ],
      "name": "transfer",
      "outputs": [
        {
          "name": "",
          "type": "bool"
        }
      ],
      "payable": false,
      "stateMutability": "nonpayable",
      "type": "function"
    },
    {
      "constant": false,
      "inputs": [
        {
          "name": "spender",
          "type": "address"
        },
        {
          "name": "value",
          "type": "uint256"
        }
      ],
      "name": "approve",
      "outputs": [
        {
          "name": "success",
          "type": "bool"
        }
      ],
      "payable": false,
      "stateMutability": "nonpayable",
      "type": "function"
    },
    {
      "constant": false,
      "inputs": [
        {
          "name": "from",
          "type": "address"
        },
        {
          "name": "to",
          "type": "address"
        },
        {
          "name": "value",
          "type": "uint256"
        }
      ],
      "name": "transferFrom",
      "outputs": [
        {
          "name": "success",
          "type": "bool"
        }
      ],
      "payable": false,
      "stateMutability": "nonpayable",
      "type": "function"
    }
  ],
  "bytecode": "0x60806040526040805190810160405280601381526020017f53696d706c652045524332323320546f6b656e000000000000000000000000008152506001908051906020019061004f929190610195565b506040805190810160405280600381526020017f53455400000000000000000000000000000000000000000000000000000000008152506002908051906020019061009b929190610195565b506012600360006101000a81548160ff021916908360ff160217905550600360009054906101000a900460ff1660ff16600a0a620f4240026004553480156100e257600080fd5b506004546000803373ffffffffffffffffffffffffffffffffffffffff1673ffffffffffffffffffffffffffffffffffffffff168152602001908152602001600020819055503373ffffffffffffffffffffffffffffffffffffffff16600073ffffffffffffffffffffffffffffffffffffffff167fddf252ad1be2c89b69c2b068fc378daa952ba7f163c4a11628f55a4df523b3ef6004546040518082815260200191505060405180910390a361023a565b828054600181600116156101000203166002900490600052602060002090601f016020900481019282601f106101d657805160ff1916838001178555610204565b82800160010185558215610204579182015b828111156102035782518255916020019190600101906101e8565b5b5090506102119190610215565b5090565b61023791905b8082111561023357600081600090555060010161021b565b5090565b90565b610cc2806102496000396000f3006080604052600436106100a4576000357c0100000000000000000000000000000000000000000000000000000000900463ffffffff16806306fdde03146100a9578063095ea7b31461013957806318160ddd1461019e57806323b872dd146101c9578063313ce5671461024e57806370a082311461027f57806395d89b41146102d6578063a9059cbb14610366578063be45fd62146103cb578063dd62ed3e14610476575b600080fd5b3480156100b557600080fd5b506100be6104ed565b6040518080602001828103825283818151815260200191508051906020019080838360005b838110156100fe5780820151818401526020810190506100e3565b50505050905090810190601f16801561012b5780820380516001836020036101000a031916815260200191505b509250505060405180910390f35b34801561014557600080fd5b50610184600480360381019080803573ffffffffffffffffffffffffffffffffffffffff1690602001909291908035906020019092919050505061058b565b604051808215151515815260200191505060405180910390f35b3480156101aa57600080fd5b506101b361067d565b6040518082815260200191505060405180910390f35b3480156101d557600080fd5b50610234600480360381019080803573ffffffffffffffffffffffffffffffffffffffff169060200190929190803573ffffffffffffffffffffffffffffffffffffffff16906020019092919080359060200190929190505050610683565b604051808215151515815260200191505060405180910390f35b34801561025a57600080fd5b506102636108ef565b604051808260ff1660ff16815260200191505060405180910390f35b34801561028b57600080fd5b506102c0600480360381019080803573ffffffffffffffffffffffffffffffffffffffff169060200190929190505050610902565b6040518082815260200191505060405180910390f35b3480156102e257600080fd5b506102eb61091a565b6040518080602001828103825283818151815260200191508051906020019080838360005b8381101561032b578082015181840152602081019050610310565b50505050905090810190601f1680156103585780820380516001836020036101000a031916815260200191505b509250505060405180910390f35b34801561037257600080fd5b506103b1600480360381019080803573ffffffffffffffffffffffffffffffffffffffff169060200190929190803590602001909291905050506109b8565b604051808215151515815260200191505060405180910390f35b3480156103d757600080fd5b5061045c600480360381019080803573ffffffffffffffffffffffffffffffffffffffff16906020019092919080359060200190929190803590602001908201803590602001908080601f01602080910402602001604051908101604052809392919081815260200183838082843782019150505050505091929192905050506109d0565b604051808215151515815260200191505060405180910390f35b34801561048257600080fd5b506104d7600480360381019080803573ffffffffffffffffffffffffffffffffffffffff169060200190929190803573ffffffffffffffffffffffffffffffffffffffff169060200190929190505050610c5e565b6040518082815260200191505060405180910390f35b60018054600181600116156101000203166002900480601f0160208091040260200160405190810160405280929190818152602001828054600181600116156101000203166002900480156105835780601f1061055857610100808354040283529160200191610583565b820191906000526020600020905b81548152906001019060200180831161056657829003601f168201915b505050505081565b600081600560003373ffffffffffffffffffffffffffffffffffffffff1673ffffffffffffffffffffffffffffffffffffffff16815260200190815260200160002060008573ffffffffffffffffffffffffffffffffffffffff1673ffffffffffffffffffffffffffffffffffffffff168152602001908152602001600020819055508273ffffffffffffffffffffffffffffffffffffffff163373ffffffffffffffffffffffffffffffffffffffff167f8c5be1e5ebec7d5bd14f71427d1e84f3dd0314c0f7b2291e5b200ac8c7c3b925846040518082815260200191505060405180910390a36001905092915050565b60045481565b60008060008573ffffffffffffffffffffffffffffffffffffffff1673ffffffffffffffffffffffffffffffffffffffff1681526020019081526020016000205482111515156106d257600080fd5b600560008573ffffffffffffffffffffffffffffffffffffffff1673ffffffffffffffffffffffffffffffffffffffff16815260200190815260200160002060003373ffffffffffffffffffffffffffffffffffffffff1673ffffffffffffffffffffffffffffffffffffffff16815260200190815260200160002054821115151561075d57600080fd5b816000808673ffffffffffffffffffffffffffffffffffffffff1673ffffffffffffffffffffffffffffffffffffffff16815260200190815260200160002060008282540392505081905550816000808573ffffffffffffffffffffffffffffffffffffffff1673ffffffffffffffffffffffffffffffffffffffff1681526020019081526020016000206000828254019250508190555081600560008673ffffffffffffffffffffffffffffffffffffffff1673ffffffffffffffffffffffffffffffffffffffff16815260200190815260200160002060003373ffffffffffffffffffffffffffffffffffffffff1673ffffffffffffffffffffffffffffffffffffffff168152602001908152602001600020600082825403925050819055508273ffffffffffffffffffffffffffffffffffffffff168473ffffffffffffffffffffffffffffffffffffffff167fddf252ad1be2c89b69c2b068fc378daa952ba7f163c4a11628f55a4df523b3ef846040518082815260200191505060405180910390a3600190509392505050565b600360009054906101000a900460ff1681565b60006020528060005260406000206000915090505481565b60028054600181600116156101000203166002900480601f0160208091040260200160405190810160405280929190818152602001828054600181600116156101000203166002900480156109b05780601f10610985576101008083540402835291602001916109b0565b820191906000526020600020905b81548152906001019060200180831161099357829003601f168201915b505050505081565b600060606109c78484836109d0565b91505092915050565b6000826000803373ffffffffffffffffffffffffffffffffffffffff1673ffffffffffffffffffffffffffffffffffffffff1681526020019081526020016000205410151515610a1f57600080fd5b826000803373ffffffffffffffffffffffffffffffffffffffff1673ffffffffffffffffffffffffffffffffffffffff16815260200190815260200160002060008282540392505081905550826000808673ffffffffffffffffffffffffffffffffffffffff1673ffffffffffffffffffffffffffffffffffffffff168152602001908152602001600020600082825401925050819055508373ffffffffffffffffffffffffffffffffffffffff163373ffffffffffffffffffffffffffffffffffffffff167fddf252ad1be2c89b69c2b068fc378daa952ba7f163c4a11628f55a4df523b3ef856040518082815260200191505060405180910390a3610b2584610c83565b15610c53578373ffffffffffffffffffffffffffffffffffffffff1663c0ee0b8a3385856040518463ffffffff167c0100000000000000000000000000000000000000000000000000000000028152600401808473ffffffffffffffffffffffffffffffffffffffff1673ffffffffffffffffffffffffffffffffffffffff16815260200183815260200180602001828103825283818151815260200191508051906020019080838360005b83811015610bec578082015181840152602081019050610bd1565b50505050905090810190601f168015610c195780820380516001836020036101000a031916815260200191505b50945050505050600060405180830381600087803b158015610c3a57600080fd5b505af1158015610c4e573d6000803e3d6000fd5b505050505b600190509392505050565b6005602052816000526040600020602052806000526040600020600091509150505481565b600080823b9050600081119150509190505600a165627a7a723058204e1a88771b599ff1a2285ea96bea692dc7653635f9f8ec4b73263540b9cd22a70029",
  "source": "pragma solidity ^0.4.21;\n\ninterface ITokenReceiver {\n    function tokenFallback(address from, uint256 value, bytes data) external;\n}\n\ncontract SimpleERC223Token {\n    // Track how many tokens are owned by each address.\n    mapping (address => uint256) public balanceOf;\n\n    string public name = \"Simple ERC223 Token\";\n    string public symbol = \"SET\";\n    uint8 public decimals = 18;\n\n    uint256 public totalSupply = 1000000 * (uint256(10) ** decimals);\n\n    event Transfer(address indexed from, address indexed to, uint256 value);\n\n    constructor() public {\n        balanceOf[msg.sender] = totalSupply;\n        emit Transfer(address(0), msg.sender, totalSupply);\n    }\n\n    function isContract(address _addr) private view returns (bool is_contract) {\n        uint length;\n        assembly {\n            //retrieve the size of the code on target address, this needs assembly\n            length := extcodesize(_addr)\n        }\n        return length > 0;\n    }\n\n    function transfer(address to, uint256 value) public returns (bool success) {\n        bytes memory empty;\n        return transfer(to, value, empty);\n    }\n\n    function transfer(address to, uint256 value, bytes data) public returns (bool) {\n        require(balanceOf[msg.sender] >= value);\n\n        balanceOf[msg.sender] -= value;\n        balanceOf[to] += value;\n        emit Transfer(msg.sender, to, value);\n\n        if (isContract(to)) {\n            ITokenReceiver(to).tokenFallback(msg.sender, value, data);\n        }\n        return true;\n    }\n\n    event Approval(address indexed owner, address indexed spender, uint256 value);\n\n    mapping(address => mapping(address => uint256)) public allowance;\n\n    function approve(address spender, uint256 value)\n        public\n        returns (bool success)\n    {\n        allowance[msg.sender][spender] = value;\n        emit Approval(msg.sender, spender, value);\n        return true;\n    }\n\n    function transferFrom(address from, address to, uint256 value)\n        public\n        returns (bool success)\n    {\n        require(value <= balanceOf[from]);\n        require(value <= allowance[from][msg.sender]);\n\n        balanceOf[from] -= value;\n        balanceOf[to] += value;\n        allowance[from][msg.sender] -= value;\n        emit Transfer(from, to, value);\n        return true;\n    }\n}\n\ncontract TokenBankChallenge {\n    SimpleERC223Token public token;\n    mapping(address => uint256) public balanceOf;\n\n    constructor(address player) public {\n        token = new SimpleERC223Token();\n\n        // Divide up the 1,000,000 tokens, which are all initially assigned to\n        // the token contract's creator (this contract).\n        balanceOf[msg.sender] = 500000 * 10**18;  // half for me\n        balanceOf[player] = 500000 * 10**18;      // half for you\n    }\n\n    function isComplete() public view returns (bool) {\n        return token.balanceOf(this) == 0;\n    }\n\n    function tokenFallback(address from, uint256 value, bytes) public {\n        require(msg.sender == address(token));\n        require(balanceOf[from] + value >= balanceOf[from]);\n\n        balanceOf[from] += value;\n    }\n\n    function withdraw(uint256 amount) public {\n        require(balanceOf[msg.sender] >= amount);\n\n        require(token.transfer(msg.sender, amount));\n        balanceOf[msg.sender] -= amount;\n    }\n}",
  "sourcePath": "/home/goncalo/devg/capturetheether/miscellaneous/2_token_bank_local/contracts/TokenBank.sol",
  "compiler": {
    "name": "solc",
    "version": "0.4.26+commit.4563c3fc.Emscripten.clang"
  },
  "schemaVersion": "3.4.3",
  "updatedAt": "2021-12-06T16:26:55.408Z",
  "networkType": "ethereum",
  "devdoc": {
    "methods": {}
  },
  "userdoc": {
    "methods": {}
  }
}